:1000000067BDCDF3EFEFEFE67510CECFFA70F5F1E7
:100010006770F606D0E9751000DFF010FBDFF41012
:10002000FCCFFA70B7FE01FE17FD667510EFCFFA30
:1000300070F8FE0110FBDFEA10EACFDDBDCDF8EF6E
:10004000EF7910CFCE4BBD99CFFFFD0270FFD0EFFF
:100050007510FBDFF410EFDF27F1550000FDF2BD56
:100060006DFFFE1BBDCDF8EFEFF16B766040061023
:10007000FACFEF7740FC15CFFA70FCFD66BDCDF9E5
:10008000EFEF707FFD6676CDA9BBDDCA60F1B5D01C
:10009000F2D0E6D0E5D0E3D0F2D0E3D0D4A9F17C21
:1000A000DFF997FF8670EFBD6FD007A9D0F470FB22
:1000B000D0F870EAD0FC70CE057650BF0675D01C23
:1000C000BBCDEBBD7EDFFA70E9D027BDCDBC77A5F7
:1000D00076607006D04B7660F00695E4FF94B0B27F
:1000E000BDCDBC700FA5BD7DFA76501F06E173B083
:1000F000C0F4AD0EAD5EB0BDCDB2ADB0BBBDCDAF49
:00000001FF