:10000000BBDDD3C8E17460F0BBB5B000F8F8F8F31D
:10001000F8E2FB94F8DBFB94F8D5F8D0F91DFB94DB
:10002000F8B57450DF04BDCDF4EFEF739BB0C8BEDC
:1000300074602004D02EBBCDC2BBDDD2C8D97460A1
:10004000F0BBB5F92CF881F921F91DF91DF909F971
:100050001DF905F901F8FDF91DF881FB94F925F862
:1000600081F91D7450EFD041C8F874601004D02F8E
:10007000BDCDF6FFEFBBDDDEC8EB7450DF04725080
:10008000FE02E888DF5972600E029AD0607450EF69
:100090000424EBDAEBD29BB0C8F9746010D022E8EC
:1000A00088DFF9BDCDF2FFEFEBD260FCEC032CA5AD
:1000B000A57310FDCFFCFB3710F2CFFCFB0010F84E
:1000C000CFFCF88110FEDF0410FADF08BDCDF2EF9F
:1000D000EFEFE67450BF602004B070B604B070BD9E
:1000E00004B0BDCDBA70FFA5E888CFFCF88170FFE1
:1000F000050270F1F81B70BA04B070B804B0BDB955
:00000001FF