:10000000CFFF703704F8D074BBBA04B0A9DDF51087
:10001000FCCFFCBD4F039BB0A870FF03B0BD4FA940
:10002000D00BFB94BDCDAEADD01573DF09F52270BA
:10003000FEEBDAD7F7AB103DCF23F8ECBDCDB77BA5
:10004000A57AA57034047000F8EAC0D3DFF670FF1B
:10005000050270F4F90BBDCDA670FFA57250EF023A
:10006000F881BFB272BBCDF273CFF5A910FCCFFC03
:10007000BD4F039BB3BEB0BDCDFDAD60FCB0BDCDEB
:10008000B070FFA572BBBBDDF5BBDDEB7260420259
:10009000FB9472606002BDCDA7AD0570FED0B97251
:1000A000DD132202BDCDA6AD10FFCFFCFA1A0570FC
:1000B000F3D0CDB2BDCDB0AD10FFDFAC30FEBDCEC4
:1000C000A510FFCFB574207ADFF7BDCDFAEFEFEFC3
:1000D000E60402BDCDADA5A5A5A5A5A570F79A70AE
:1000E000FF9AB3B003DDD510F8CFF7B97260EFB85F
:1000F000CF51507F04BDCDB975A5E888DFFC70FBFA
:00000001FF