:1000000030FE60FCA50575DFF5BF0570FAE81BBE84
:10001000F63BBDCDB470FED04260FCCFEDE2E9CD41
:10002000F4BD99DEFFA103A87077B07075B0EBFC4A
:10003000D0E960FCCFEFE2C8DD17BD5F7510FBDFD4
:1000400014EC0FDF09EBF870F3B07560FCCFFCF235
:10005000A2FBF4EC0810DFDEB00560FCCFFCF288F8
:10006000FBF0EC0860FCCFFCF27DFBEC7530FE6031
:10007000FC05BDCDB8AD15DFE475DFF4EC0FDF1284
:1000800072604002F5BAE2C8CD1CF5DE0000000047
:10009000000000007075000000B005EC0860FCCFA7
:1000A000F775A17023A1A8B0FBE6B972507B02BB23
:1000B000DDF7B810FFCF0ED06474CFF970FBD7FD19
:1000C0009AB810FFCF1DEC0810DFDE230E60FCCFC6
:1000D000FCF2887250DF02BDCDA77EA5B0B9BDCDC0
:1000E000C3AD05B8CDFBAD507FF81BBDCDBE70FED6
:1000F000A5ADB960FEB8CFFC50FD6004BDCEA5B083
:00000001FF