:10000000FF80D0A3D0A2D093F7EBF76CD09FF70579
:10001000AD30FEDFFBBDCEA5B0B6FFE5BBBDCDC9A3
:10002000D0FABBBDCDCABB60C70FAD3F0FB0E7AFC5
:10003000F87FF3AFFC3FF3D7FE1FEFBFFBFFBDCD53
:10004000A5ADCDFAB4EBC8BEC0F8CD0CE671D010AA
:10005000BDCDC7AD0EAD1EDFF9B4EA4D70FFB0EEF9
:100060006CB1EC79B17FBFDFEFF7FBFDFEEFE6008F
:10007000B4FAB1EBCDB1B4F372B4F36DB4F48EBD98
:10008000DDDFBDF9000EAFB960F310F3CFFB70F701
:100090009A70FF9A0604027DBE0DB80360FC30AF73
:1000A00001BDF90005AF608002BDCDFFAD13CFF2F9
:1000B000AD12CFF6AD11CFFAEFEFD0E7BDCDFCBD5D
:1000C000B9DFCF70FFA5B7BDCF03BDCDFF73A5725C
:1000D000A571A5BDED0FAF60FCBBBBBDB9FFD13AAB
:1000E0000AABBDCDCFA5ABA5ABA507ABA50673608D
:1000F000F3BAA510FFCFF170C8A570C0A570FD01BF
:00000001FF