:10000000E0A5B07760FC0EE8881EDFFC707F45B08D
:10001000BDED7EAFD010E5147510DFDEEDEFDCBD79
:10002000ED73AFCDEDE256BDCDA5707FD0D3EFE23D
:10003000BDED22AFDD0DB0E514E266BDCDBFAD551F
:10004000093860C005C02DDDF67519CF0A60FC05C2
:10005000B0BDCDB275A5BDCDBFA57000B0E514BDD6
:1000600099DEFF7023A1A87510DFDEFAEFDCE256FF
:10007000BDCDA5707EA5B0EC08EFDCB4EA5460817C
:10008000A7B073BFCFF670F30694EC2096B0BACF4A
:10009000FA70F4D00BBA06F4FFBDCDCBAD10FFDF84
:1000A000FA70FB08B070DF08B0B4EA546040507FCB
:1000B000A7B0BDCDFFAD60EFDFCDBDCDBAAD10FFB8
:1000C000CFD5707F0570FB08BDCDC4E4F2DDE27BC7
:1000D000BBCDE5BD99CFFFE35C70F7BDCDBAA5BD43
:1000E000ED7EAF60E050DFBDCDC3A5B0BDED757056
:1000F000FFA770F5D0190CBDED21B2AF0EB910FFFE
:00000001FF