:100000001710DFCFFA70DFD00CE4FF220694D02661
:100010007510DFDFEE600310AFCF107560FC07ECEA
:100020000FDF18D03D707F07D0427510DFDF3160E1
:1000300017109FCF2A77DD3A7560EF40EF0E75609D
:10004000F8BB3EBB37BDCDB2A5B9BDCDAFBBB96026
:10005000F93C0CB8BBCDFCBDCFBD99FF9AB8BABA7C
:1000600060F83808A90EAD6EDF5FBDCDFEAD47402C
:10007000AD4507FE19EC0805B8B910FDCFF8E5B598
:10008000FE19FDF610FACF047510DFDE09E5E6066D
:10009000F16FFE177510FCDFE810FBCFFC7000E578
:1000A0006577450775DDFA10FCCF1770F3FDF37027
:1000B000BAFE017510FACF3477DDEEBBDDBBBBDDD8
:1000C000E377BDCDB8A505E5CDD03ABDCDB8AD0738
:1000D0007730FE60FC07EC0FDF08D019BD99DEFF1A
:1000E00070FEA1BDCDFEADA170AFA1708FA170FD5E
:1000F000A170FCA1BDCDC5ADA1BD99DEFF70F7F12A
:00000001FF