:10000000AFA3BDED6FAF10FFDFF1BDEE20FEA71077
:10001000FFCFFA7010EDD7FCAB70FF04030170DF67
:100020000DBE0D2DBDCDBFBDF9DF9CA5B7FDCF0326
:10003000B0BD99000FA90760E7BA0C77603CDDFC02
:1000400050DF5C506FBDCDA2A57760FBCFFA708703
:10005000D0FC707BBDCDA3A577DDF5BBCDF0BD3960
:10006000FC3FD0F2BD39FE1F70D7D0F8BD39F87F04
:1000700070AFBDCDBFA5703E06260AB004EF8E60FE
:10008000070B0530F7092908A3B7B9CF030A750B89
:10009000EC93A776A7EC8B74CFFCEDEA00707FECB5
:1000A0009874A77BA7BDEF33A772A774CFED70F745
:1000B000A7BDED6170FFA774BB9C70FF9D74B0700D
:1000C000FFD0117088B970FFB9B9B107BA60F8EF05
:1000D0008EC087CDFABDED6AAF0C8DCCDEA6087C54
:1000E000DDE2507FA677A760EFCFF57810EFDFE76E
:1000F00010EEDFE6779CC0B350F79DFCABA677DD32
:00000001FF
