:100000005FB0BDED78AFBDEEB0BDED61A7B0E65C11
:100010007B01BDED7421A7BC0AE710EC86E724E95B
:1000200010EAFD0860CFDFE510CFDFF110DFDFF170
:1000300070D7BDED79A707D0F070AFD00970BFD0F1
:100040000DBDCDA3ADD013BCC8706F08BDED64A7C6
:10005000A730F801BC9F70F2A17CCDF760F7DFFB01
:1000600070F5A1EDB0BBB29F707C9EECD750DFA7BE
:10007000B3FA66E685E710BDED79AF07AF0CECD7B4
:10008000607F05BDED67AFB9AFB9AF06AF08AF3060
:10009000F86008012104BC9FB077062604B7B3CFEF
:1000A000FCF953AB0ECDFAE910D0F875DDFB7ECF2D
:1000B000EDF357BD6ECF187CCD1FF9A2DD9F75DD26
:1000C000A07E10DEDEA910DFDFA910F3DFF97C606F
:1000D000CFCFA47E10F5DFDC10F3DFE810E5DF8979
:1000E00010F6DF9410F9DFA810F8DFA910F0CFC1E7
:1000F00070F4E9337617DF59D0D37C60FDDFA0AB15
:00000001FF
