:1000000050DFA5B4FC80C0BADDF4507FA570FCE9D8
:10001000D3B4FC6AB0C0C9609FDFF3BBCDFA70F9FE
:10002000E9D370F8E9D3C0DA70FFA5B0B9BC0FE826
:1000300081B4EF8EB8F9ACBDCDB8A5B0BDCDB8BD1B
:1000400099DFB4A9B9A8ADA1ACB8A5B0BDCDBEAD7E
:10005000BDCEB0BBB5D0BED0E8D0C2D0C4D0EBF9D5
:1000600084D0CAD0EBD0F9D0F2B4FB23B4F708B4F3
:10007000FC4EB4FC2EB4FB27B4FB8AB4EC0D72101A
:10008000F7CEEA75603FCFEFE9C37FB970FBE9D3E4
:10009000B80FE9C3B4FC65B0C0A710DFDFD570DFCF
:1000A000A3D0E40E7FB975B97E05C012B805B80FAC
:1000B000B005C0C110A0DFEF70DFA370A0A3B7B37D
:1000C000CFFCEDC4BDCFA4B4E8A4B7B3CFFCEDC45E
:1000D0007AA47BA570C2A3B4EC9370C2A7A3B802A4
:1000E000B803B80AB80BB00E7FB975B97EC03CD062
:1000F00043BDCDA1AD0F7FDFD4ADDDF30E7310EDA9
:00000001FF