:1000000042EA54601EA770F8D01EAE70FFA7B3700E
:1000100085ECD5BDED10AFCD2BBCBFBDAD0FAB108A
:10002000FFDF35ECD57ACF08D03CB2A1470770236B
:10003000A1A8B4F89DEAF37FB9B8B90FB7B1DFD77B
:10004000EA9ABDFDE1230605B7B3DFE0AB10FFCFB1
:10005000FABD6FD00B0EDDDFEC677E507F0E755062
:100060007F05AFECD5D01DB8FD1375BBCFD876DFBB
:100070003670F2ECD5D03CEC5B7EBACEF970F6056A
:10008000D01D60EFCFFA70F6ECD5B7B3DF53ABCD30
:10009000050ED018EC5BFCC676DFF070DFECD5BD4A
:1000A0006ECF06B075CD0D2506B070FFB9E2E90040
:1000B000A7BDCDBDAD60C7DFE0BBBBCDF1B9700062
:1000C00007E2FDBDED72708FA7B8BBDDD6BBDFF7D1
:1000D000B2EA5450FBA7B3ABCDEDB7B1CF05EB11EE
:1000E000ABCDF6B7B1CF05AA70FFA3AAEAB9B2EAC1
:1000F000546080A7B3ABE56FB803B4F59DB4E18954
:00000001FF