:10000000A3B7B1CF03BDED74709FA7B0BDED78AEBF
:1000100001BC01AF01B0BDED7DAF0BAF0AB0BDEDCE
:100020007D7BA77AA7B0C010AFA3AAB0BDED6DAF1E
:10003000BDEEB0EA84BC9BBC8AA8DDF7B793DE05B1
:1000400070FFB0BD9BB0EACC05BDED7AA7B0B2EAB7
:1000500054601850EFA7B3B075CDF5BADEF8EACC0E
:10006000BD5F75A1B07F6087032302C0CA0C723CDC
:100070000273BD06FF03B7B3DE0AB0EA9A722C0220
:1000800073BD04FF03B0BC9BBC8AA9DDF9B793CE56
:1000900005A9BD9AB070FF01BC017F600701BD1AC0
:1000A000B0BDCDCEADB0BDED74AFB0BDED77AFBDE1
:1000B000EEB00CAD07B2AD067C507FBDD9DFC6B344
:1000C000A577B4EFDDB2BDED6CAF20FEBDEEA7B3FA
:1000D00077BBB9CDF1EAB1BDED7FAFBA50E70CB453
:1000E000EFEFB8BBBBDEB0DDB060F7CF9E7610EFB0
:1000F000DFB610EEDFB8B2EA540860DFCFBE78BBDF
:00000001FF