:10000000DFED1092CFA6FE7CBDED7BEB04D0AFFE02
:10001000A3FE5DFE59EB117520CFDD5510E7DE59CB
:100020000EEA5E0C7EDF5D7A3C0A7BBD06FF0BBDEF
:10003000EED00DEA5E0C7520DFCE741CDE773A0A36
:100040007BBD06FF0BFF377BDDF97510F0DFE77036
:10005000FFF30827077560C2507FFF5AEE95B80876
:10006000B809B80AB80B70FFFF30EACC05CDF6BB73
:10007000BBDDF8AAF2F8A1F8A6B0EE9505707FE610
:10008000BCD023EACCEA9AEA750CCDF260DFCFF05F
:100090007C6001A1B793CE0FB791CE15FEA1BD9B99
:1000A000D00CE8F3FEA1E8C8FEA179B978B9E87CE4
:1000B000AAB808B809FFE87510DECEEF1080DFF5AA
:1000C00070ED0775A3B7B1DE8FFFE80000000000F8
:1000D00000000010F5DFE810F4DFD910F3DFDD00D9
:1000E00000000010EDDFB110E4DFB7FE3BA3771096
:1000F000EDCEF770F107707DD034BDCDC8ADD03AEC
:00000001FF