:10000000DE9DDDA8BA50FEA7B3EAD9AF0576087029
:10001000E009A91000DFE50775BBBBDDAE76105F18
:10002000DEA7EAA7EA9AEAF3EA59DD8A77A3E95359
:10003000ABDDF1F56FF5AEB4FF8FFB24F573F5770B
:1000400005BBBBCD15EA79BCB9BCA8D01DBDED7F01
:10005000AFBA50EF0CB4EFEFFAB1B9766010103CC4
:10006000B8DF5DB3FAB1B8B8B3EAB1F56477107B25
:10007000DEF276101FCE0DF68477DDFCF684BBB57C
:10008000F944F928F8D1F8ACF887F84AF80DF80DDA
:10009000F7B5F799F764F753F727F6FDF6E7F6D7C4
:1000A000EA79A8B79BDF79A8A9A0D007B7B3CEF4A7
:1000B000B7B1CEFCEB11EA9A4305B0EAA7EA9ABCC5
:1000C0009BBC8ABD9BB793DFF8A9DDFBA3D008706A
:1000D000FFA3EAE9ABF56FE91FE8F307EAE9F56D7D
:1000E00075CFDEEAF3EA5960D7CFEB7F60070929C5
:1000F00008A9DDEFB791CF05BDEE709FA7B010DF67
:00000001FF