:10000000E0A7EAE9BDED73AF503FBDEEA777100062
:10001000CFFDB0A7F567EA5460F9DFF5E5BCEA5417
:1000200050BFA7D01FB4EF83F92DEB0AEB11BDED44
:10003000717BA77AA770CFA770DFA7D0397C507FDC
:100040000CD015BDCDFFADCD35BDED10AFDD3BF90D
:1000500099EA5460DFDFCFBDED11AF0E76A710FF38
:10006000DFF07EDFF3BDED11A7EAD350BF0CFB2E0E
:10007000AEE30B60600000A7000000000000BDEDD3
:1000800073705FA7B3B0FAB1EAB1FB2470FFD0146C
:1000900007AAEAE177A775A770ECA3B2EA54BBDE22
:1000A000F8DDFABABABBA7B3B0EB1170F2A1BDCDBF
:1000B000CFAD07AD06BDCDC8AD057FB97A36027BA1
:1000C000BD06FF032304ABDDE810FFDFDB10DEDE3F
:1000D000DB0CBDF9E4AF3ECEFCBDFF0EAFD014602B
:1000E000F310F3CFF3BD4FB7B3DFE4ABCD07D00FC1
:1000F000BD4FD0F10C74DFF770DFA1BD4ECF037C94
:00000001FF