:10000000010F04050F030D0505040509060A020486                                     
:100010000B0204090F0E0F0209000F0E0504050460                                     
:1000200005040504020002000200020A0A0201059A                                     
:1000300007020608030902060302090A0A01050766                                     
:100040000808050709020708030103070803090850                                     
:1000500003080A0A020F0507030C010802090A0F28                                     
:100060000507030C0A030E03020001040F0908012F                                     
:10007000050201070106050F0703070B0207030727                                     
:100080000B070B01020F030107030F020105070114                                     
:100090000E0F0F0F0F0B0F0B0B0F0604030F0406B1                                     
:1000A0000802060308020703080A030805080A01F4                                     
:1000B000080102000A010200030507010808000305                                     
:1000C000050701080A02000E08090200080A0E03CB                                     
:1000D0000C060E0B030F0E08030C0B0304090E0194                                     
:1000E0000F080F0506090E010F070F0F080D0F0966                                     
:1000F0000C0405040F0F0F0F0F0F0F0F0F0F0F0F33                                     
:00000001FF 