:100000001450BF077CD0237C60BFCF15779CC0CB3A
:1000100050B69DFCABBD99000DA9CDF5BDED6D7041
:100020004FA770EEA7B0000007B2C0E767D0F9078E
:10003000B2C0EE57A707C0ECBBDDF8C0ECBB9C77A5
:100040009DB3B0BDED70AFBDEEB0BDED6DAFB0BD59
:10005000ED76AFB007BA50F7EF8EECD7BB0C603F30
:10006000DFDFDDED77603FCFD37C60F9B5D0B9D06D
:10007000CED0C5D0C377603FCFED707BEC98BDED9F
:10008000707CBA60EFA7703C9EFCAB703C9E779F83
:100090007070D00A707DBDED62A7ECD7602FA7D03D
:1000A0001E707E07ECD7600FA777D022707CD00B34
:1000B0007070D00FBDED63AE08BC9FAF28DFE0A924
:1000C000DDE010F2DFDC9E07C0997710F5DFD2107B
:1000D000F3DFBE10F4DFC2BDED74A7FCAB9ED0070A
:1000E0006080CFCB707BD050BDED74AFBDED6310A1
:1000F000F5CFFAC0C4D04170F2D033BDED74AF106B
:00000001FF