:10000000F5DFF270FD0CECD7600F5CA777D036708F
:10001000FED00C70FCD01020FEDFF5BD8E507FA10D
:1000200070DFFD7770DFD060BDED70AFBDEEB078F2
:100030006008A7AF507FBDEEA7B0B80EB80F7DB96E
:10004000BDDDDF7CB97BB97AB979B978B977B97F89
:10005000B97EB9B0B807B808B809B80AB80BB80C77
:10006000B80DB80EB80FB1BDED77A7B0BDED7F7B71
:10007000A77AA7B0BDED7BD008BDED7CAF05B07F02
:1000800060070CBDED7BC0DDBDED7FC0E2BDED7551
:10009000C0E7AFD0EAE685AFA3B0BDCDA2ADBDED60
:1000A00078A7BDED62707CA7B0AF60F85CBDEEA72D
:1000B000B0E72060BD50EFBDEEA6BDCDB8ADF37C7E
:1000C00010F7CEF7EAFD60BFA7D0FB70FFA7EB1FCC
:1000D000B07FB9BCF0E65CBC3FBD2D7BB860070FBC
:1000E0002F0EAFA3B7B3CF04701FEC98BCF3EC8016
:1000F000FC6ABDCDB8AD60F002EF8EF3DCDDE772D7
:00000001FF