:10000000ABCDF9BDBA6001A3B7B3CF0AEBB6EBAE87
:10001000607F57A770FF05707F07EBA7DDD907A3A7
:10002000B7B3CF08C0E9D00C70FF07B4EC8BEBAED0
:1000300060FDDFF970EFB4EC9877B0BDED75AF0BF4
:100040002B0AB0BDDDDFBBB5D0F0D0EBD0D8D0D01F
:10005000D0CAD0ABFD38FB72EBAE50BFA7D043A9DE
:1000600010FCDFF560C0507FBD7D7FD04DEB58B4F4
:10007000E699D048EBA0DD09BCB1BCA0FDE8B4EC2A
:1000800093ABA7AAFDE877DDF0270CABDDECAA7CEB
:10009000A3B7B3CF08FDDBABDDF7B7B3CF05FDDB0F
:1000A0000760DFCF09FDDFEBA0DD3CEBA7BDDDDFA7
:1000B000CDF81078DF4770DF06A3B7B3CFFBEDC4F0
:1000C00076B7B1CF0AFDE8EB42EB6BEBA0DD60BD8C
:1000D0006DFF75BC5660DFCFECABDDECAA76A3B745
:1000E000B3CFFCEDC4B7B1CF0EFDE8ABCDFA60DF06
:1000F000DF11B7B3CFFCEDC4B7B1CF0FFDE8EBAE66
:00000001FF
