:10000000BA0E7FBDA70F7ABDB74B60FEDFF94F0F69
:100010007E470EBD6FDFFA7BBAD01B7FA57EA5752C
:10002000B0B2BF7460FECFFABEADF18FF17270FB5B
:100030000270AAF4ABBDCE50BFA5E849F309BDCD0F
:10004000B370FFA5A5F3D110FCCFFA74600704B319
:10005000B0ADE081BDCEB0ADBDCE4560FECFF5AD5B
:10006000BDCE60FDDFFCF668ADBDCE40FE6002A5F2
:10007000BBF612BDCDAFADBDCE50FDA5F62A607F5B
:10008000407FB00000000000000000000000000001
:100090000000000000000000000000000000000060
:1000A0000000000000000000000000000000000050
:1000B0000000000000000000000000000000000040
:1000C0000000000000000000000000000000000030
:1000D0000000000000000000000000000000000020
:1000E0000000000000000000000000000000000010
:1000F0000000000000000000000000000000000000
:00000001FF